:100000000C9439000C9477140C94D2110C941D1795
:100010000C941D170C941D170C941D170C941D1790
:100020000C941D170C941D170C941D170C941D1780
:100030000C941D170C941D170C941D170C941D1770
:100040000C941D170C941D170C941D170C941D1760
:100050000C941D170060007A80007A007E002E4804
:10006000007E00868000860088002E4C0088008D6F
:10007000800011241FBECFE5D4E0DEBFCDBFE4E594
:10008000F0E040E017C0B591A5913591259105911B
:1000900007FD0CC095918591EF01F92FE82F059090
:1000A0000D92A217B307D9F7FE0104C01D92A21743
:1000B000B307E1F7E137F40731F70E94C9050C9463
:0600C000AC16F894FFCF1E
:1000C60000000000008181188181000700070014EC
:1000D6007F147F14242A7F2A122313086462364968
:1000E6005522500005030000001C22410000412259
:1000F6001C0014083E081408083E0808005030008A
:1001060000080808080800606000002010080402C3
:100116003E5149453E00427F4000426151494621D9
:1001260041454B311814127F1027454545393C4A45
:100136004949300171090503364949493606494995
:10014600291E0036360000005636000008142241EB
:100156000014141414140041221408020151090653
:10016600324979413E7E1111117E7F494949363E19
:10017600414141227F4141221C7F494949417F0932
:100186000909013E4149497A7F0808087F00417FF5
:1001960041002040413F017F081422417F404040FA
:1001A600407F020C027F7F0408107F3E4141413EA2
:1001B6007F090909063E4151215E7F0919294646F4
:1001C6004949493101017F01013F4040403F1F201D
:1001D60040201F3F4038403F6314081463070870EF
:1001E60008076151494543007F4141000204081058
:1001F600200041417F00040201020440404040408B
:10020600000102040020545454787F48444438388E
:1002160044444420384444487F3854545418087E93
:100226000901020C5252523E7F0804047800447DB4
:1002360040002040443D007F1028440000417F409C
:10024600007C041804787C08040478384444443854
:100256007C14141408081414147C7C08040408483C
:1002660054545420043F4440203C4040207C1C20F1
:1002760040201C3C4030403C44281028440C505040
:10028600503C4464544C44000836410000007F0052
:1002960000004136080010080810080000000000A1
:1002A6002564003E20464F434F2031002020464F14
:1002B600434F2032002020464F434F20330020205A
:1002C600464F434F2034002020464F434F203100F5
:1002D6003E20464F434F2032003E20464F434F209C
:1002E60033003E20464F434F203400464F434F20B5
:1002F6003100493A2000206D4100464F434F2032DD
:1003060000464F434F203300464F434F2034004CA6
:05031600757A3A200099
:10031B001200AE01A83F0120000221007F02220043
:10032B0007004001D30000A100C801DA1201817F50
:10033B0000A400A601D58001D9C201DB20018D14D8
:02034B0000AF01
:10034D0068076C094C836A9074A07AC00080688835
:06035D0000846C820081A7
:07036300286E756C6C290087
:06036A00286E696C2900F9
:10037000A3EAB0E0EEEBF1E00C9475154C015901E5
:10038000C756DF4F488359836A83C959D040212C0F
:10039000312C6E012BE8C20ED11C85E2782E26018D
:1003A00030E8632ECE018D569F4FC456DF4F9983A0
:1003B0008883CC59D0409C0140E8CF55DF4F28833B
:1003C00039834A83C15AD040C756DF4F4881C95943
:1003D000D040C656DF4F5881CA59D040C556DF4F6E
:1003E0006881CB59D040FA01849167FD80818823D0
:1003F00009F4C9C3CF57DF4F19821882C158D040C2
:100400008FEF9FEFCD57DF4F99838883C358D0403C
:10041000CB57DF4F19821882C558D040A1E0B0E019
:10042000AC0FBD1FC957DF4FB983A883C758D04051
:10043000E0E8F0E0C757DF4FF983E883C958D040C0
:10044000CA01A62FE12CF12CFC012491A7FD2081EB
:1004500021111BC0E114F10401F19701C4010E94B4
:100460004D12C756DF4F88819981AA81C959D04062
:100470008E0D9F1DA11DF7FCAA95C756DF4F8883DF
:100480009983AA83C959D04008C00196A11D25327D
:1004900009F3FFEFEF1AFF0AD7CFC756DF4F888166
:1004A0009981AA81C959D040FC012491A7FD2081DE
:1004B000253209F056C39C014A2F2F5F3F4F4F4F03
:1004C000C256DF4F288339834A83CE59D040C7565E
:1004D000DF4F288339834A83C959D040C756DF4F3D
:1004E00088819981AA81C959D040FC012491A7FD36
:1004F00020812B3241F4CF57DF4F28813981C158F9
:10050000D04024600BC02C32CCF02D3259F5CF579F
:10051000DF4F28813981C158D0402160CF57DF4F4C
:1005200039832883C158D0400196A11DC756DF4F9B
:1005300088839983AA83C959D040D0CF203241F40F
:10054000CF57DF4F28813981C158D0402860E6CF8E
:10055000233291F4CF57DF4F28813981C158D040E1
:100560002061DCCF203341F4CF57DF4F2881398120
:10057000C158D0402260D2CF2A3299F50196A11DF0
:10058000C756DF4F88839983AA83C959D040D501C4
:10059000ED91FC911197CF0102968D939C938081F0
:1005A0009181CB57DF4F99838883C558D04097FFFF
:1005B0003EC0CF57DF4F28813981C158D040B1E0CC
:1005C0002B27CF57DF4F39832883C158D0409195CF
:1005D00081959109CB57DF4F99838883C558D040C7
:1005E00026C0BC018A2F0E944B11CB57DF4F998345
:1005F0008883C558D040C756DF4F288139814A814A
:10060000C959D040F901849147FD8081082E000C22
:10061000990BC0970A9758F42F5F3F4F4F4FC7561B
:10062000DF4F288339834A83C959D040E4CFCF575D
:10063000DF4F88819981C158D04080FF07C08D7FEE
:10064000CF57DF4F99838883C158D040C756DF4FBB
:1006500088819981AA81C959D040FC012491A7FDC4
:1006600020812E3209F058C0CD57DF4F19821882F1
:10067000C358D0409C014A2F2F5F3F4F4F4FC75662
:10068000DF4F288339834A83C959D040F9015491F7
:1006900047FD50815A32D1F40296A11DC756DF4F53
:1006A00088839983AA83C959D040D501ED91FC91E3
:1006B0001197CF0102968D939C9380819181CD57A4
:1006C000DF4F99838883C358D04026C0842FB90157
:1006D0000E944B11CD57DF4F99838883C358D04078
:1006E000C756DF4F288139814A81C959D040F90165
:1006F000849147FD8081082E000C990BC0970A97C2
:1007000058F42F5F3F4F4F4FC756DF4F2883398331
:100710004A83C959D040E4CFCE0187569F4F0E94EB
:10072000B310182FC756DF4F2881C959D040C6567D
:10073000DF4F8881CA59D040C556DF4F9881CB59C9
:10074000D040E22FF82F849197FD8081082E000C75
:10075000990B0E94D2168936910509F45AC0B4F457
:100760008336910509F466C144F48532910509F494
:10077000A1C18136910529F1B3C18436910509F4EF
:1007800048C0883691050CF42DC1AAC18037910567
:1007900009F4CBC04CF48E36910509F419C18F369B
:1007A000910509F47CC09CC18537910509F454C0BA
:1007B0008837910509F496C08337910509F090C1F7
:1007C00058C1612F70E0A501C6010E94DD14892B7C
:1007D00009F4B7C1C756DF4F88819981AA81C959E9
:1007E000D0409C014A2F2F5F3F4F4F4FC756DF4FDE
:1007F000288339834A83C959D040FC012491A7FD3D
:100800002081A601BE016F577F4FC4010E941A17B5
:1008100095C1612F70E0950141E050E0C6010E9452
:100820005A0A892B09F48DC1C756DF4F88819981F7
:10083000AA81C959D0400196A11DC756DF4F8883B0
:100840009983AA83C959D040A601BE016F577F4F33
:10085000C4010E94DF0872C1612F70E0950140E081
:1008600050E0C6010E945A0A892B09F46AC1C75692
:10087000DF4F88819981AA81C959D0400196A11D75
:10088000C756DF4F88839983AA83C959D040A601F0
:10089000BE016F577F4FC4010E94660F4FC1612F89
:1008A00070E0950140E050E0C6010E945A0A892B91
:1008B00009F447C1C756DF4F88819981AA81C95978
:1008C000D0400196A11DC756DF4F88839983AA8324
:1008D000C959D040A601BE016F577F4FC4010E9485
:1008E000300E2CC1612F70E0950140E050E0C60150
:1008F0000E945A0A892B09F424C1C756DF4F888108
:100900009981AA81C959D0409C014A2F2F5F3F4F3E
:100910004F4FC756DF4F288339834A83C959D04088
:10092000FC012491A7FD20814BC0950140E050E0DF
:1009300060EF70E0C6010E945A0A892B09F401C1D8
:10094000C756DF4F88819981AA81C959D040019645
:10095000A11DC756DF4F88839983AA83C959D04008
:1009600086E02AE633E040E0F901DE01AD56BF4FF4
:10097000742F0E947016D6012C9111963C911197FC
:1009800012964C91129713965C91139714966C9152
:10099000149715967C91159716968C911697179625
:1009A0009C91A0E00E94951651F400E010E0CF5514
:1009B000DF4F288139814A81C15AD040B9C028E728
:1009C000A601BE016F577F4FC4010E949F07B6C0AA
:1009D000612F70E09501A1014E0D5F1DC6010E94BF
:1009E0005A0DAFC0612F70E0A501C6010E94DD1451
:1009F000892B09F4A6C0C756DF4F88819981AA8147
:100A0000C959D0409C014A2F2F5F3F4F4F4FC756C7
:100A1000DF4F288339834A83C959D040FC01249190
:100A2000A7FD2081A601BE016F577F4FC4010E9420
:100A30001A1784C0103809F084C0C756DF4F888168
:100A40009981AA81C959D0400196A11DC756DF4F8F
:100A500088839983AA83C959D040D501ED91FC912F
:100A60001197CF0102968D939C938081F60180832C
:100A70005BC0103809F065C0C756DF4F8881998187
:100A8000AA81C959D0400196A11DC756DF4F88835E
:100A90009983AA83C959D040D501ED91FC91119752
:100AA000CF0103968D939C9320813181428100E098
:100AB00010E03EC0103809F044C0C756DF4F8881AF
:100AC0009981AA81C959D0400196A11DC756DF4F0F
:100AD00088839983AA83C959D040F601708224C0C3
:100AE000D6017C92C256DF4F288139814A81CE5986
:100AF000D040C756DF4F288339834A83C959D04035
:100B0000CF57DF4F19821882C158D040CB57DF4FE3
:100B100019821882C558D0408FEF9FEFCD57DF4F15
:100B200099838883C358D04001E010E0462D92019C
:100B3000BE016F577F4FC4010E94010F8E0D9F1D94
:100B400011C0C756DF4F88819981AA81C959D04009
:100B50000196A11DC756DF4F88839983AA83C9597F
:100B6000D040C7017101E80EF91EE214F3044CF401
:100B70008FE490E090937900809378008FEF9FEF5F
:100B800003C0170121CCC101CD55DF4FE2E10C9428
:020B90009115BD
:100B920080EF81BB9FEF97BB84B3806884BB87E8FB
:100BA20086B980E487B91BB88AB188608AB980B5F2
:100BB200866880BD83E389B910BC97BB80EC8BBF8C
:100BC2008AE085BF78940E94BE0F0E94FD14809136
:100BD2008C0081110BC090916900911107C081E0D6
:100BE20090E00E9463160E948D13F1CF81112AC0FA
:100BF20090916900913031F50E94BE0F0E94FD1460
:100C02001CC080E00E949E09EC01893B9B4078F069
:100C120088B38E7F88BB8FEF9DE329E4815090409B
:100C22002040E1F700C0000088B3816088BBCE019C
:100C32000E946316CE010E940F13809169008130D9
:100C420001F3C5CF811113C090916900923079F4FC
:100C52000E94BE0F0E94FD1405C084E00E94811212
:100C62000E940416809169008230B9F3B0CF8130BE
:100C720059F490916900911107C082E090E00E94BE
:100C820063160E94B613A3CF813009F04DC0909134
:100C92006900913009F048C00E94BE0F0E94FD1405
:100CA2003DC081E00E949E09BC0180E090E00E946C
:100CB2001012609374007093750080937600909385
:100CC200770020E030E048E453E40E94071718164A
:100CD2007CF488B38D7F88BB8FEF9DE329E481503C
:100CE20090402040E1F700C0000088B3826088BBDA
:100CF20060917400709175008091760090917700F8
:100D02000E94B212CB010E9439138FEF94E32CE0C0
:100D1200815090402040E1F700C0000080916900BE
:100D2200813009F4BECF53CF8130E1F49091690054
:100D32009230C1F40E94BE0F0E94FD140EC085E0E5
:100D42000E9481120E9404168FEF94E32CE08150DE
:100D520090402040E1F700C000008091690082309D
:100D620071F335CF823059F490916900911107C027
:100D720083E090E00E9463160E94DF1328CF823046
:100D820009F050C090916900913009F04BC00E9467
:100D9200BE0F0E94FD1440C082E00E949E09EC0139
:100DA200BC0180E090E00E94101260937400709386
:100DB20075008093760090937700CE010E946316AF
:100DC2006091740070917500809176009091770027
:100DD20020E030E84BE355E40E94071718167CF434
:100DE20088B38B7F88BB8FEF9DE329E481509040CD
:100DF2002040E1F700C0000088B3846088BB6091A6
:100E020074007091750080917600909177000E9435
:100E1200B212CB010E94E11280916900813009F483
:100E2200BBCFD5CE823099F490916900923079F49B
:100E32000E94BE0F0E94FD1405C086E00E9481122E
:100E42000E940416809169008230B9F3C0CE8330CB
:100E520059F490916900911107C084E090E00E94DA
:100E620063160E940814B3CE833009F050C09091EB
:100E72006900913009F04BC00E94BE0F0E94FD1420
:100E820040C083E00E949E09EC01BC0180E090E03A
:100E92000E94101260937400709375008093760024
:100EA20090937700CE010E94631660917400709156
:100EB2007500809176009091770020E030E84BE356
:100EC20055E40E94071718167CF488B38B7F88BB01
:100ED2008FEF9DE329E4815090402040E1F700C06C
:100EE200000088B3846088BB6091740070917500C3
:100EF20080917600909177000E94B212CB010E94FD
:100F0200631380916900813009F4BBCF60CE8330D6
:100F120009F05DCE80916900823009F058CE0E94BE
:100F2200BE0F0E94FD1405C087E00E9481120E943C
:0C0F32000416809169008230B9F349CEAA
:100F3E00A4E1B0E0E5EAF7E00C94751598878F838D
:100F4E007A8369835C8B4B8B122FDB011296ED91AA
:100F5E00FC91139714962D913C9115973E832D83FA
:100F6E00ED90FC90119716962D903C901797F7FDEB
:100F7E0003C0E894E1F802C0E1E0F0E0C70180713F
:100F8E0099279A878987E4FE1FC0AB89BC892C916B
:100F9E0011963C91119712964C91129713965C9163
:100FAE00139714966C91149715967C911597169627
:100FBE008C91169717969C91A0E00E94951621F0A1
:100FCE008D819E81029702C08D819E81970128702E
:100FDE0033273C872B87E3FC0197AB89BC894C9068
:100FEE0011965C90119712966C90129713967C90B6
:100FFE00139714968C90149715969C901597169699
:10100E00AC9016971796BC90A981BA811896CD9080
:10101E00DC901997B1E0CB1AD108D101AC0DBD1DF2
:10102E001C929C838B839F01281B390B3E872D8737
:10103E00C70182709927988B8F87812F012E000C04
:10104E00990BDC01A154B109BA8BA98B32E0C316FE
:10105E00D10434F489859A85892B09F04CC073C06C
:10106E009201A301B401C501A0E00E94951681F181
:10107E00B1E0CB1AD108C2018F7099278A30910541
:10108E0014F4C09602C0895A9F4FE989FA897A975B
:10109E0048F49C012062215631092A31310510F4A1
:1010AE000E94C916F101EC0DFD1D80832B813C8140
:1010BE00215031093C832B839201A301B401C50158
:1010CE0004E00E943D1529013A014B015C01BECF9F
:1010DE008D859E85AB81BC818A0F9B1F18161906C4
:1010EE003CF21A161B060CF0B5CFEF85F889EF2BE4
:1010FE0009F0BECFAFCFAB89BC892C9111963C9134
:10110E00119712964C91129713965C911397149611
:10111E006C91149715967C91159716968C9116973F
:10112E0017969C91A0E00E94951669F0F101EC0DC6
:10113E00FD1D31971083B2E0CB1AD108F101EC0DF1
:10114E00FD1D80E38083EB85FC85EF2B41F0F1E004
:10115E00CF1AD108F101EC0DFD1D80E28083A9812B
:10116E00BA8118962D913C911997215031092C195D
:10117E003D09C20CD31CA60160E80D811E818F8132
:10118E0098850E94640C9C01EF81F8858081918185
:10119E0090FF09C0A981BA8112968D919C911397E7
:1011AE00821793070CF4C9016496E2E10C94911531
:1011BE00ADE0B0E0E5EEF8E00C9475159A878987FE
:1011CE007C836B83FA01DB011296CD90DC90139732
:1011DE0014968D919C9115979E838D83ED90FC9026
:1011EE001197FA82E98216960D90BC91A02DB887C0
:1011FE00AF832080318042805380648075808680EA
:10120E0097808101B42DF52DE62D7B868C869D86EB
:10121E009101A201B301C401A0E00E9495164CF405
:10122E000E9436168901B42FF52FE62F7B878C8707
:10123E009D87D7FC04C0E894E1F8FA82E982910117
:10124E00A201B301C401A0E0ED80FE800E949516BC
:10125E001CF0898182FF04C081E0E81AF10805C004
:10126E0083FF03C091E0E91AF108CE0101965C01FB
:10127E008AE0C82ED12C2B2F3F2F4E2F5B856C85ED
:10128E007D858B819C810E94BF0BFC019101A20187
:10129E00B301C401A0E00E9495161CF0898182FF63
:1012AE0012C031970F8118850E0F1F1F9101A201D9
:1012BE00B301C401A0E00E94951614F08BE201C0A8
:1012CE008DE2D80108C083FF07C03197AF81B88582
:1012DE00AE0FBF1F80E28C93E980FA80AB81BC8198
:1012EE0018962D913C911997215031092E1B3F0BC9
:1012FE008F819885E80FF91FAF0160E80D811E817F
:10130E0089859A850E94640C9C01A985BA858D9168
:10131E009C9190FF07C0EB81FC81828193818217A3
:0E132E0093070CF4C9012D96E2E10C94911581
:10133C001F93CF93DF93182F1092650010926600C5
:10134C001092670010926800109274001092750051
:10135C001092760010927700109283001092820007
:10136C00109281001092800010927F0010927E00EB
:10137C00C0E0D0E069C0812F0E945915BC0180E00B
:10138C0090E00E9410122AE038E240EA5BE30E94EF
:10139C0010176093650070936600809367009093BC
:1013AC00680029E23CE54FE150E40E94DA162091F6
:1013BC007A0030917B0040917C0050917D000E941E
:1013CC000C17609374007093750080937600909363
:1013DC00770020E030E0A9010E940217882344F432
:1013EC001092740010927500109276001092770093
:1013FC0020E030E04AE754E460917400709175008D
:10140C0080917600909177000E9410170E94B21282
:10141C009B017093830060938200409180005091F7
:10142C0081004617570720F4709381006093800069
:10143C0040917E0050917F002417350720F4709363
:10144C007F0060937E002196C83E23E0D2070CF407
:10145C0092CF809180009091810020917E003091FC
:10146C007F00821B930B9695879520918600309177
:10147C008700821B930B90938300809382000E94C1
:10148C0063168091820090918300893E9D4F20F0DD
:10149C0010928300109282008091820090918300C0
:0814AC00DF91CF911F9108951B
:1014B4000F931F93CF93DF93FC01D9016838710513
:1014C40031F194F461387105B1F12CF4603871058F
:1014D40009F478C09FC06238710509F459C06438B2
:1014E400710509F46FC096C0603A710509F448C0EB
:1014F4002CF46039710509F44BC08CC0603C710553
:1015040009F476C0603F710509F472C083C0CD91BF
:10151400DC911197CE0102968D939C93452B39F063
:101524009881892F880F880B908381835BC0888181
:101534008083118268C0CD91DC911197CE0104960D
:101544008D939C93452B99F088819981AA81BB81C5
:10155400AC01BD01770F440B542FBA0180839183F2
:10156400A283B383448345834683478328C0088189
:1015740019812A813B81008311832283338345C0EF
:10158400CD91DC911197CE0102968D939C9323C04B
:10159400CD91DC911197CE0108968D939C9378811F
:1015A40069815A814B813C812D819E818F81708319
:1015B400618352834383348325839683878381E0C5
:1015C40090E02AC0CD91DC911197CE0102968D93C3
:1015D4009C93452BA1F099812881892F880F880B32
:1015E4002083918382838383848385838683E6CF68
:1015F400CD91DC911197CE0102968D939C93088135
:101604001981008311831282138214821582168237
:101614001782D5CF80E090E0DF91CF911F910F9199
:02162400089527
:101626000F931F93CF93DF93C82F862F8F7090E071
:10163600009709F040C0607F11F4D0E001C0D0E807
:1016460080918A00609188008B5F0E9499148111B5
:101656008EC08CE30E94A116811189C080E40E948D
:101666004616811184C020E023C08C2F90E080971D
:1016760011E0120FAC01440F551F440F551F840F84
:10168600951F820F911DA0E08A539F4FAF4FFC011B
:1016960084918D2B0E944616811169C080918A0023
:1016A60090918B00019690938B0080938A00212F56
:1016B6002530D8F24BC0019709F047C0607F11F47E
:1016C600D0E001C0D0E880918A0060918800865FF2
:1016D6000E94991481114BC08CE30E94A1168111BE
:1016E60046C080E40E944616811141C020E02AC00F
:1016F6008C2F90E0809711E0120FAC01440F551F1C
:10170600440F551F840F951F820F911DA0E08A5329
:101716009F4FAF4FFC0184910D2F082B802F0E9405
:101726004616811124C0802F0E94461681111FC0C3
:1017360080918A0090918B00029690938B00809303
:101746008A00212F2530A0F201C0D0E08D2F0E9403
:10175600461681110CC080918A0090918B000196EB
:1017660090938B0080938A000E94141780E0DF918B
:08177600CF911F910F9108951E
:10177E00A2E1B0E0E5ECFBE00C947515FC010A8BE0
:10178E001B832C83732E642E552E462E7D83CC8682
:10179E00D886BF82AE82868197819B878A87D50144
:1017AE004D915C91228133818085918501971C0139
:1017BE0037FF02C021E030E0EA85FB85E80FF91F14
:1017CE0010824701E1E0F0E0FA83E983C9018E1946
:1017DE009F099E878D87DA01A270BB27B88BAF87D2
:1017EE00B885BB0FBB0BB98B1214130474F0A9810F
:1017FE00BA81AB2B09F05CC0AE81BF818D919C91FB
:10180E0011978F7E8D939C9353C02A893B814C8177
:10181E00572D662D752D842D9D81A0E00E94951665
:10182E00B1F1E1E02E1A3108FC85F987AF2EB884AC
:10183E00C988DC2CEC2CFC2C0C2D1C2D2A893B8110
:10184E004C81572D662D752D842D9D810E94551628
:10185E00C90129839A83EA85FB85E20DF31D805D1C
:10186E00808381E0881A91082A893B814C81572D0B
:10187E00662D752D842D9D810E9457162A8B3B83D4
:10188E004C83752E662E572E482E9D83ADCF8D859B
:10189E009E85880D991D181619061CF21814190428
:1018AE000CF0A5CFEF85F889EF2B09F0BACF9FCFBB
:0A18BE00C1016296E2E10C9491155D
:1018C8002F923F924F926F927F928F92AF92BF92D8
:1018D800CF92DF92EF92FF920F931F93CF93DF93F4
:1018E800CDB7DEB766970FB6F894DEBF0FBECDBF93
:1018F8005C013A01862E6901C701817099279C8B8A
:101908008B8BE0FC1DC020173107D4F47801EC184C
:10191800FD08FE8AED8AA70191E1E916F10410F0AD
:1019280040E150E060E270E0CE0101969A8B898B2D
:101938000E94C01689899A891C0120E8422E0BC092
:101948009601682DA301C5010E944D12C016D1064B
:10195800ECF2C60125C090E1E916F10458F020E147
:1019680030E0642DA101C5010E944D1280E1E81A02
:10197800F108F1CF2D893E892F70332789899A89FB
:10198800AC0160E8C5010E944D128B899C89892BA6
:1019980031F49601682DA301C5010E944D12C801BA
:1019A80066960FB6F894DEBF0FBECDBFDF91CF911C
:1019B8001F910F91FF90EF90DF90CF90BF90AF9065
:0E19C8008F907F906F904F903F902F900895DA
:1019D60010C00E94E81658F00E94E11640F029F463
:1019E6005F3F29F00C94FC1651110C94F0160C94E0
:1019F60017170E94BB1468F39923B1F3552391F38B
:101A0600951B550BBB27AA2762177307840738F067
:101A16009F5F5F4F220F331F441FAA1FA9F335D0C4
:101A26000E2E3AF0E0E832D091505040E695001C78
:101A3600CAF72BD0FE2F29D0660F771F881FBB1F32
:101A4600261737074807AB07B0E809F0BB0B802D10
:101A5600BF01FF2793585F4F3AF09E3F510578F03C
:101A66000C94FC160C94F0165F3FE4F3983ED4F306
:101A7600869577956795B795F7959F5FC9F7880F10
:101A8600911D9695879597F90895E1E0660F771F62
:101A9600881FBB1F621773078407BA0720F0621BF3
:0E1AA600730B840BBA0BEE1F88F7E0950895C2
:101AB400CF93DF93DC01F90164387105D9F164F443
:101AC4006138710521F16238710509F440C060384C
:101AD400710509F054C02EC060397105C1F184F458
:101AE4006838710509F04BC0C081D181CE010296DE
:101AF40091838083E881F981ED93FC9340833CC01A
:101B0400603A7105B9F0603C7105A1F038C0C0813C
:101B1400D181CE01029691838083E881F981ED938E
:101B2400FC93052E000C660B770B40835183628374
:101B3400738322C0C081D181CE01029691838083B8
:101B4400E881F981ED93FC935183408315C0C081F2
:101B5400D181CE01029691838083E881F981ED934E
:101B6400FC9351834083852F880F880B8283838362
:101B7400848385838683878381E090E002C080E04C
:081B840090E0DF91CF9108957C
:101B8C000FC00E94E11638F00E94E81620F0952351
:101B9C0011F00C94FC160C94171711240C94F016DD
:101BAC000E94BB1470F3959FC1F3950F50E0551F25
:101BBC00629FF001729FBB27F00DB11D639FAA2796
:101BCC00F00DB11DAA1F649F6627B00DA11D661FE5
:101BDC00829F2227B00DA11D621F739FB00DA11D06
:101BEC00621F839FA00D611D221F749F3327A00DC0
:101BFC00611D231F849F600D211D822F762F6A2F5C
:101C0C0011249F5750409AF0F1F088234AF0EE0FC0
:101C1C00FF1FBB1F661F771F881F91505040A9F7ED
:101C2C009E3F510580F00C94FC160C94F0165F3F0F
:101C3C00E4F3983ED4F3869577956795B795F79529
:101C4C00E7959F5FC1F7FE2B880F911D96958795A1
:041C5C0097F9089557
:101C6000A2E0B0E0E6E3FEE00C9475151C014B0128
:101C7000FA01DB0112962D913C91139714964D9029
:101C80005C9015978D919C9111979A8389831696F4
:101C90006D907C90179737FD03C08D7F9A83898361
:101CA0000081118122813381448155816681778150
:101CB000FE0131965F0188E0C82ED12C7201C4016B
:101CC0000E94BF0B298124FF06C00197F301E80F92
:101CD000F91F20E32083298123FF06C00197F30128
:101CE000E80FF91F20E22083E980FA80D4011896DA
:101CF0002D913C91199721503109281B390B860DE4
:101D0000971DAC0160E88201C1010E94640C9C0136
:101D1000F1018081918190FF08C0D40112968D91CC
:101D20009C911397821793070CF4C9012296E2E164
:041D30000C94911569
:101D340011C00E94E11638F00E94E81620F039F430
:101D44009F3F19F426F40C9417170EF4E095E7FB63
:101D54000C94FC16E92F0E94BB1458F3BA176207BF
:101D640073078407950720F079F4A6F50C94EF1611
:101D74000EF4E0950B2EBA2FA02D0B01B9019001A2
:101D84000C01CA01A0011124FF27591B99F0593FE6
:101D940050F4503E68F11A16F040A22F232F342F2E
:101DA4004427585FF3CF469537952795A795F0407C
:101DB4005395C9F77EF41F16BA0B620B730B840B91
:101DC400BAF09150A1F0FF0FBB1F661F771F881F49
:101DD400C2F70EC0BA0F621F731F841F48F48795A1
:101DE40077956795B795F7959E3F08F0B0CF939593
:0E1DF400880F08F09927EE0F979587950895B0
:101E02002F923F924F926F927F928F92AF92BF9298
:101E1200CF92DF92EF92FF920F931F93CF93DF93B4
:101E2200CDB7DEB727970FB6F894DEBF0FBECDBF92
:101E32006C017B013901842E980183E6282E83E010
:101E4200382E80E0482E87E0F101AE014F5F5F4FF0
:101E5200DA01742D0E947016F70102811381A480A9
:101E6200B580E080F18061147104810419F43A01B3
:101E7200F0E88F2E2115310529F4882DB3010E9437
:101E8200DB159C0117FD04C00217130708F4980123
:101E92008501682DA301C6010E94640C27960FB626
:101EA200F894DEBF0FBECDBFDF91CF911F910F918E
:101EB200FF90EF90DF90CF90BF90AF908F907F9088
:0A1EC2006F904F903F902F9008950D
:101ECC00A2E0B0E0ECE6FFE00C9475153C014B0190
:101EDC00FA01DB0112962D913C91139714964D90BB
:101EEC005C9015978D919C9111979A838983169686
:101EFC002D903C90179737FD03C08D7F9A83898373
:101F0C0000811181228133814481558166817781E1
:101F1C00FE0131965F018AE0C82ED12C7201C401FA
:101F2C000E94BF0BE980FA80D40118962D913C9148
:101F3C00199721503109281B390B820D931DAC01C7
:101F4C0060E88201C3010E94640C9C01F301808152
:101F5C00918190FF08C0D40112968D919C9113979A
:101F6C00821793070CF4C9012296E2E10C949115A7
:101F7C006F927F928F92CF92DF92EF921F93CF93BB
:101F8C00DF938BE193E0A0E0FC0114910E94B71663
:101F9C008CE30E94A116811133C00F2EFCE1CF2ED1
:101FAC00F3E0DF2EF0E0EF2EF02D25C0F601C4910A
:101FBC00AE2DC6010196A11DF2E0CF0ED11CE11C85
:101FCC00FC0184910E947D16882381F019C0360192
:101FDC008E2CFFEF6F1A7F0A8F0AF60184910E94F4
:101FEC007D16CD2F81110CC0E82C6301DFEFDC0FC7
:101FFC00C111EDCF11501111D9CF0E94141780E0EF
:10200C00DF91CF911F91EF90DF90CF908F907F90C9
:04201C006F90089524
:102020006F927F928F92EF92FF920F931F93CF93B5
:10203000DF93CDB7DEB761970FB6F894DEBF0FBE62
:10204000CDBFFE01319651E1DF011D925A95E9F7AE
:10205000A2E0B1E0BA83A9839C838B8377FF09C098
:102060008FE490E090937900809378008FEF9FEF5A
:1020700019C03901842E7C01615071097F836E8300
:102080009801682DA301CF010E94AC1548855985A0
:102090002E813F814217530708F49A01F701E20F9E
:1020A000F31F108261960FB6F894DEBF0FBECDBF4E
:1020B000DF91CF911F910F91FF90EF908F907F90C4
:0420C0006F90089580
:1020C40088249924F401E401B0E49F93AA279A1583
:1020D4008B049C04ED05FE05CF05D007A10798F4F9
:1020E400AD2FDC2FCF2FFE2FE92D982C892E982F82
:1020F400872F762F652F542F432F322F2227B85046
:1021040031F7BF9127C01B2EBF91BB27220F331F6E
:10211400441F551F661F771F881F991F881C991C11
:10212400EE1FFF1FCC1FDD1FAA1FBB1F8A149B04B9
:10213400EC05FD05CE05DF05A007B10748F08A18B8
:102144009B08EC09FD09CE09DF09A00BB10B216046
:102154001A94E1F62EF49401AF01BE01CD01000CF6
:022164000895DC
:10216600CF92DF92EF92DC0190E0292F30E0220F30
:10217600331F6901032E000CEE086E2DA601435B8A
:102186005C4F6F4F6A01E62EFA018491E7FC80816D
:1021960081110DC02F5F3F4F032E000C440B235BB4
:1021A6003C4F4F4FF901849147FD808124C0CD906B
:1021B600DD90EC901297F6014491E7FC4081841380
:1021C60015C02F5F3F4F032E000C440B235B3C4F83
:1021D6004F4FF901949147FD90815FEFC51AD50ADB
:1021E600E50ACD92DD92EC92129701C09F5F9B307B
:0E21F60008F4BBCF892FEF90DF90CF900895B3
:102204000F931F93CF93DF93DB012D913C91119793
:1022140030FF25C017964D915C91189715962D9116
:102224003C9116974217530778F41296ED91FC915E
:102234001397808312962D913C9113972F5F3F4FF4
:1022440013963C932E93129717962D913C911897C1
:102254002F5F3F4F18963C932E93179715C01D96EA
:10226400ED91FC911E97309719F48FEF9FEF0CC0FE
:102274008B01EC010995892BC1F7F80187819085C1
:10228400019690878783CE01DF91CF911F910F91A3
:022294000895AB
:10229600CF939B01482FF901849147FD80818032BD
:1022A600C9F1682F082E000C770B6950710965304B
:1022B600710580F18B3249F5A0E0B0E02F5F3F4F0A
:1022C6004F4F02C0A0E0B0E080E090E0CAE0F90124
:1022D600649147FD6081062E000C770B60537109EF
:1022E6006A30710560F4C89FF001C99FF00D112492
:1022F6002F5F3F4F4F4FCF01861B970BE8CFAB2B7E
:1023060069F491958195910909C08D32D9F6A1E0BC
:10231600B0E0D4CF2F5F3F4F4F4FBDCFCF91089541
:102326000F931F93CF93DF93C82FD62F142F022F0F
:102336008CE30E94A11681112DC081E20E947D16B8
:10234600811128C08C2F0E947D16811123C08D2FEC
:102356000E947D1681111EC08C2F90E090938B00F9
:1023660080938A0082E20E947D16811113C0812F1C
:102376000E947D1681110EC0802F0E947D1681114C
:1023860009C0812F90E090938900809388000E9475
:0E239600141780E0DF91CF911F910F910895F1
:1023A4001F920F920FB60F9211242F938F939F9326
:1023B4002FE788E391E0215080409040E1F700C08E
:1023C400000080B390E0877F892B01F12FE788E339
:1023D40091E0215080409040E1F700C0000080B3BC
:1023E40090E0877F892B91F02FE788E391E02150DB
:1023F40080409040E1F700C00000809169008F5F49
:1024040080936900833011F4109269009F918F9139
:0C2414002F910F900FBE0F901F90189595
:10242000E89409C097FB3EF490958095709561956E
:102430007F4F8F4F9F4F9923A9F0F92F96E9BB2724
:102440009395F695879577956795B795F111F8CFA0
:10245000FAF4BB0F11F460FF1BC06F5F7F4F8F4F0B
:102460009F4F16C0882311F096E911C0772321F001
:102470009EE8872F762F05C0662371F096E8862F99
:1024800070E060E02AF09A95660F771F881FDAF7F0
:0A249000880F9695879597F9089537
:10249A006F927F928F92CF92DF92EF920F931F9358
:1024AA00CF93DF938C016A01E62EE9013A01862E69
:1024BA00620E731E811C37FD8A94C614D704E80481
:1024CA0079F0F6018491E7FC8081B801082E000CAE
:1024DA00990B0E9402118FEFC81AD80AE80AEDCFA9
:1024EA00CE01DF91CF911F910F91EF90DF90CF90A6
:0824FA008F907F906F90089510
:102502000E94591590936F0080936E009C01215098
:102512003109273C310550F481E090E09093850029
:102522008093840088E48093600018C08A5C9109DB
:102532008236910550F482E090E09093850080937A
:1025420084008DE48093600009C083E090E0909362
:102552008500809384008CE48093600080E690E0A4
:022562000895DA
:102564000E94C31488F09F5798F0B92F9927B75148
:10257400B0F0E1F0660F771F881F991F1AF0BA9523
:10258400C9F714C0B13091F00E94EF16B1E008957C
:102594000C94EF16672F782F8827B85F39F0B93F6E
:1025A400CCF3869577956795B395D9F73EF49095D6
:0E25B4008095709561957F4F8F4F9F4F0895D2
:1025C200CF93DF93EC0160E08DE00E94F61641E0CC
:1025D20067E073E080E00E941C156AE08DE00E94D3
:1025E200F61641E068EF72E080E00E941C1560E799
:1025F20070E0CE010E945514BC0180E841E00E94C7
:102602001C1541E06CEF72E080E00E941C1564E151
:0C2612008DE00E94F616DF91CF91089534
:10261E00CF93DF93EC0160E08DE00E94F61641E06F
:10262E0061EF72E080E00E941C156AE08DE00E946E
:10263E00F61641E068EF72E080E00E941C1560E73C
:10264E0070E0CE010E945514BC0180E841E00E946A
:10265E001C1541E06CEF72E080E00E941C15DF91CA
:04266E00CF9108956B
:10267200CF93DF93EC0160E08DE00E94F61641E01B
:1026820060E073E080E00E941C156AE08DE00E9429
:10269200F61641E068EF72E080E00E941C1560E7E8
:1026A20070E0CE010E945514BC0180E841E00E9416
:1026B2001C1541E06CEF72E080E00E941C15DF9176
:0426C200CF91089517
:1026C600CF93DF93EC0160E08DE00E94F61641E0C7
:1026D6006EE073E080E00E941C156AE08DE00E94C7
:1026E600F61641E068EF72E080E00E941C1560E794
:1026F60070E0CE010E945514BC0180E841E00E94C2
:102706001C1541E06CEF72E080E00E941C15DF9121
:04271600CF910895C2
:10271A0060E08DE00E94F61641E069EA72E080E02E
:10272A000E941C156AE08DE00E94F61641E062EBF9
:10273A0072E080E00E941C1564E18DE00E94F616AA
:10274A0041E06BEB72E080E00E941C156EE18DE0C7
:10275A000E94F61641E064EC72E080E00E941C15CB
:02276A000895D0
:10276C0060E08DE00E94F61641E06DEC72E080E0D6
:10277C000E941C156AE08DE00E94F61641E066EDA1
:10278C0072E080E00E941C1564E18DE00E94F61658
:10279C0041E06BEB72E080E00E941C156EE18DE075
:1027AC000E94F61641E064EC72E080E00E941C1579
:0227BC0008957E
:1027BE0060E08DE00E94F61641E06DEC72E080E084
:1027CE000E941C156AE08DE00E94F61641E062EB55
:1027DE0072E080E00E941C1564E18DE00E94F61606
:1027EE0041E06FED72E080E00E941C156EE18DE01D
:1027FE000E94F61641E064EC72E080E00E941C1527
:02280E0008952B
:1028100060E08DE00E94F61641E06DEC72E080E031
:102820000E941C156AE08DE00E94F61641E062EB02
:1028300072E080E00E941C1564E18DE00E94F616B3
:1028400041E06BEB72E080E00E941C156EE18DE0D0
:102850000E94F61641E068EE72E080E00E941C15CE
:022860000895D9
:10286200990F0008550FAA0BE0E8FEEF161617069F
:10287200E807F907C0F012161306E407F50798F007
:10288200621B730B840B950B39F40A2661F0232B20
:10289200242B252B21F408950A2609F4A140A6959C
:0828A2008FEF811D811D0895D7
:1028AA00CF93DF9361157105C1F0EB019F938F936D
:1028BA0086EA92E0A0E0AF939F938F93DF936F93A2
:1028CA000E94F1158DB79EB707960FB6F8949EBF72
:1028DA000FBE8DBF8C2F9D2F02C080E090E0DF914C
:0428EA00CF910895ED
:1028EE001F920F920FB60F9211248F939F938FE129
:1028FE009EE40197F1F700C0000080B390E08B7F5B
:10290E00892B49F080918C008F5F80938C008430EE
:10291E0011F410928C009F918F910F900FBE0F901B
:04292E001F90189549
:10293200CF938823D4F4C62F673098F410928B007B
:1029420010928A0060918800709189006F5F7F4FBA
:10295200709389006093880080E00E94F6168111CE
:1029620007C0C73020F081E003C080E001C080E0F2
:04297200CF91089564
:1029760057FD9058440F551F59F05F3F71F047952A
:10298600880F97FB991F61F09F3F79F0879508950F
:10299600121613061406551FF2CF4695F1DF08C02E
:1029A600161617061806991FF1CF8695710561054B
:0429B60008940895E4
:1029BA00FA0160387105CCF0623871051CF0633891
:1029CA00710599F4A081B1819D012C5F3F4F31833C
:1029DA0020834D915D916D917C91FC0140835183DF
:1029EA006283738381E090E0089580E090E0089527
:1029FA00CF93DF938CE30E94A116811115C080E466
:102A0A000E944616811110C0C0E0D0E006C080E0E6
:102A1A000E944616811108C02196C11584E0D80784
:0E2A2A00B0F30E94141780E0DF91CF91089561
:102A3800CF92DF92EF92CF93DF936B01E82ED42FE2
:102A4800C0E004C0CF5F6D2F0E94130BAE2DC601EE
:102A58008C0F911DA11DFC018491A7FD808181111E
:0E2A6800F1CFDF91CF91EF90DF90CF900895E6
:102A760097FB10F8169400080F93083098F008504A
:102A8600232F342F452F562F672F782F892F902DE0
:102A9600F4CF0594979587957795679557954795BC
:0C2AA600379527950A95AAF70F9108951F
:102AB200877097B1892B87B986B1806486B9349BB8
:102AC200FECF86B1806186B924B120936B0085B1B7
:102AD2008093620090E0982F8827820F911D909337
:082AE2006D0080936C00089563
:102AEA002F923F924F925F926F927F928F929F9214
:102AFA00AF92BF92CF92DF92EF92FF920F931F9302
:102B0A00CF93DF93CDB7DEB7CA1BDB0B0FB6F894B2
:082B1A00DEBF0FBECDBF099420
:102B22002A88398848885F846E847D848C849B845B
:102B3200AA84B984C884DF80EE80FD800C811B8169
:102B4200AA81B981CE0FD11D0FB6F894DEBF0FBE98
:062B5200CDBFED01089566
:102B5800A2E0B0E0E2EBF5E10C9483158C013A8336
:102B680029839E012F5F3F4F0E94B801F801208101
:102B780024FF02C08FEF9FEF2296E4E00C949F158C
:102B880081B1877581B984EA86BF06B607FEFDCF95
:102B980081B1887F883039F081B1887F803129F010
:0E2BA80081B1887F089580E0089580E008954F
:102BB600CF92DF92EF926B01E82EA82FCB01FC019A
:102BC6002491A7FD2081222319F00196A11DF7CF9C
:0C2BD6008C199D09EF90DF90CF900895BE
:102BE200A0E0B0E0E7EFF5E10C9485159E01265FC9
:102BF2003F4F4F81588569858D819E810E9489163C
:062C0200E2E00C94A115B4
:102C080064E18DE00E94F61641E065E173E080E042
:102C18000E941C1560E670E080E841E00E941C15E7
:022C280008950D
:102C2A00092E0394000C11F4882352F0BB0F40F4D0
:102C3A00BF2B11F460FF04C06F5F7F4F8F4F9F4F10
:022C4A000895EB
:102C4C00880F83B984E886BF06B607FEFDCF81B135
:102C5C00887F883119F081B1887F089580E00895CC
:102C6C0060957095809590953095409550952195EF
:102C7C003F4F4F4F5F4F6F4F7F4F8F4F9F4F089579
:102C8C0083B984E886BF06B607FEFDCF81B1887F85
:0E2C9C00883219F081B1887F089580E0089594
:102CAA00689401C0E8948F929F92CF93DF930E9419
:0C2CBA006210DF91CF919F908F900895E1
:102CC6009CB95D9BFECF8CB95D9BFECF8FE19EE4E8
:0A2CD6000197F1F700C00000089517
:102CE000992777FD05C005900D920197E1F70895AA
:0A2CF00001900D920197E1F708959D
:102CFA00CF93C82F80E80E944616811103C08C2FFB
:082D0A000E944616CF910895C6
:102D12000F931F9389019A01462F6FEF7FE70E945D
:082D220010101F910F9108959C
:102D2A000024A7FD00942A173005400550056005C8
:082D3A00700580059005089565
:102D4200CF93C82F0E94C415811103C08C2F0E94FB
:062D52002616CF91089542
:102D5800EC010E9422170E942117CE010E9423171E
:062D6800CE010E941F17BE
:102D6E0082E080B981B191B182708160892B81B985
:022D7E000895B6
:102D8000FC01480F591FE417F50711F06193FBCFC1
:022D90000895A4
:102D92009C01215631092A31310510F48F7599278A
:022DA200089592
:102DA4009C01215431092A31310508F480620895C7
:0E2DB4005058BB27AA270E949A0E0C941516A1
:0E2DC20000240A94161617061806090608952E
:0E2DD00000240A941216130614060506089530
:0E2DDE00E894BB2766277727CB0197F9089565
:0C2DEC00462F27E06FE70E949311089526
:0C2DF80097F99F6780E870E060E00895A4
:0A2E04000E94311408F481E00895E3
:0A2E0E000E94311408F48FEF0895BC
:082E18000E94EB0C0C9415164E
:082E20000E94C60D0C9415166A
:062E280084E986BF089555
:062E2E009FEF80EC089507
:062E340080E090E008952B
:042E3A000C940000F4
:042E3E000E9461008D
:022E42000895F1
:022E44000895EF
:022E46000895ED
:042E4800AE47613EF2
:022E4C00640020
:00000001FF
